{
  "contractName": "VotingEnum30",
  "abi": [
    {
      "inputs": [],
      "stateMutability": "nonpayable",
      "type": "constructor"
    },
    {
      "inputs": [
        {
          "internalType": "string",
          "name": "_name",
          "type": "string"
        },
        {
          "internalType": "uint8",
          "name": "_age",
          "type": "uint8"
        }
      ],
      "name": "addCandidate",
      "outputs": [],
      "stateMutability": "nonpayable",
      "type": "function"
    },
    {
      "inputs": [
        {
          "internalType": "address",
          "name": "_candidateAccount",
          "type": "address"
        }
      ],
      "name": "voting",
      "outputs": [],
      "stateMutability": "nonpayable",
      "type": "function"
    },
    {
      "inputs": [],
      "name": "getCandidateList",
      "outputs": [
        {
          "components": [
            {
              "internalType": "string",
              "name": "name",
              "type": "string"
            },
            {
              "internalType": "uint8",
              "name": "age",
              "type": "uint8"
            },
            {
              "internalType": "address",
              "name": "account",
              "type": "address"
            },
            {
              "internalType": "uint8",
              "name": "voteCounts",
              "type": "uint8"
            }
          ],
          "internalType": "struct VotingEnum30.Candidate[]",
          "name": "",
          "type": "tuple[]"
        }
      ],
      "stateMutability": "view",
      "type": "function"
    },
    {
      "inputs": [],
      "name": "getDoneVoterList",
      "outputs": [
        {
          "internalType": "address[]",
          "name": "",
          "type": "address[]"
        }
      ],
      "stateMutability": "view",
      "type": "function"
    }
  ],
  "bytecode": "0x60806040526040518060a00160405280600060ff168152602001600160ff168152602001600260ff168152602001600360ff168152602001600460ff168152506003906005620000519291906200018a565b503480156200005f57600080fd5b5062000070620000d460201b60201c565b15620000ce5760016000803373ffffffffffffffffffffffffffffffffffffffff1673ffffffffffffffffffffffffffffffffffffffff16815260200190815260200160002060006101000a81548160ff0219169083151502179055505b620002b6565b600080600090505b60048054905081101562000181573373ffffffffffffffffffffffffffffffffffffffff166004828154811062000118576200011762000200565b5b9060005260206000200160009054906101000a900473ffffffffffffffffffffffffffffffffffffffff1673ffffffffffffffffffffffffffffffffffffffff1614156200016b57600091505062000187565b8080620001789062000268565b915050620000dc565b50600190505b90565b828054828255906000526020600020908101928215620001ce579160200282015b82811115620001cd578251829060ff16905591602001919060010190620001ab565b5b509050620001dd9190620001e1565b5090565b5b80821115620001fc576000816000905550600101620001e2565b5090565b7f4e487b7100000000000000000000000000000000000000000000000000000000600052603260045260246000fd5b7f4e487b7100000000000000000000000000000000000000000000000000000000600052601160045260246000fd5b6000819050919050565b600062000275826200025e565b91507fffffffffffffffffffffffffffffffffffffffffffffffffffffffffffffffff821415620002ab57620002aa6200022f565b5b600182019050919050565b610d4080620002c66000396000f3fe608060405234801561001057600080fd5b506004361061004c5760003560e01c80638d5c968014610051578063e0c2eb021461006d578063ed29454c14610089578063fdbc4006146100a7575b600080fd5b61006b6004803603810190610066919061071d565b6100c5565b005b610087600480360381019061008291906108c9565b610277565b005b6100916103f9565b60405161009e91906109e3565b60405180910390f35b6100af610487565b6040516100bc9190610bc1565b60405180910390f35b6000803373ffffffffffffffffffffffffffffffffffffffff1673ffffffffffffffffffffffffffffffffffffffff16815260200190815260200160002060009054906101000a900460ff1661011a57600080fd5b6000600160008373ffffffffffffffffffffffffffffffffffffffff1673ffffffffffffffffffffffffffffffffffffffff1681526020019081526020016000205490506002818154811061017257610171610be3565b5b9060005260206000209060020201600101601581819054906101000a900460ff16809291906101a090610c41565b91906101000a81548160ff021916908360ff160217905550506004339080600181540180825580915050600190039060005260206000200160009091909190916101000a81548173ffffffffffffffffffffffffffffffffffffffff021916908373ffffffffffffffffffffffffffffffffffffffff16021790555060008060003373ffffffffffffffffffffffffffffffffffffffff1673ffffffffffffffffffffffffffffffffffffffff16815260200190815260200160002060006101000a81548160ff0219169083151502179055505050565b60056002805490501061028957600080fd5b600260405180608001604052808481526020018360ff1681526020013373ffffffffffffffffffffffffffffffffffffffff168152602001600060ff168152509080600181540180825580915050600190039060005260206000209060020201600090919091909150600082015181600001908051906020019061030e929190610608565b5060208201518160010160006101000a81548160ff021916908360ff16021790555060408201518160010160016101000a81548173ffffffffffffffffffffffffffffffffffffffff021916908373ffffffffffffffffffffffffffffffffffffffff16021790555060608201518160010160156101000a81548160ff021916908360ff1602179055505050600060016002805490506103ae9190610c75565b905080600160003373ffffffffffffffffffffffffffffffffffffffff1673ffffffffffffffffffffffffffffffffffffffff16815260200190815260200160002081905550505050565b6060600480548060200260200160405190810160405280929190818152602001828054801561047d57602002820191906000526020600020905b8160009054906101000a900473ffffffffffffffffffffffffffffffffffffffff1673ffffffffffffffffffffffffffffffffffffffff1681526020019060010190808311610433575b5050505050905090565b60606002805480602002602001604051908101604052809291908181526020016000905b828210156105ff57838290600052602060002090600202016040518060800160405290816000820180546104de90610cd8565b80601f016020809104026020016040519081016040528092919081815260200182805461050a90610cd8565b80156105575780601f1061052c57610100808354040283529160200191610557565b820191906000526020600020905b81548152906001019060200180831161053a57829003601f168201915b505050505081526020016001820160009054906101000a900460ff1660ff1660ff1681526020016001820160019054906101000a900473ffffffffffffffffffffffffffffffffffffffff1673ffffffffffffffffffffffffffffffffffffffff1673ffffffffffffffffffffffffffffffffffffffff1681526020016001820160159054906101000a900460ff1660ff1660ff1681525050815260200190600101906104ab565b50505050905090565b82805461061490610cd8565b90600052602060002090601f016020900481019282610636576000855561067d565b82601f1061064f57805160ff191683800117855561067d565b8280016001018555821561067d579182015b8281111561067c578251825591602001919060010190610661565b5b50905061068a919061068e565b5090565b5b808211156106a757600081600090555060010161068f565b5090565b6000604051905090565b600080fd5b600080fd5b600073ffffffffffffffffffffffffffffffffffffffff82169050919050565b60006106ea826106bf565b9050919050565b6106fa816106df565b811461070557600080fd5b50565b600081359050610717816106f1565b92915050565b600060208284031215610733576107326106b5565b5b600061074184828501610708565b91505092915050565b600080fd5b600080fd5b6000601f19601f8301169050919050565b7f4e487b7100000000000000000000000000000000000000000000000000000000600052604160045260246000fd5b61079d82610754565b810181811067ffffffffffffffff821117156107bc576107bb610765565b5b80604052505050565b60006107cf6106ab565b90506107db8282610794565b919050565b600067ffffffffffffffff8211156107fb576107fa610765565b5b61080482610754565b9050602081019050919050565b82818337600083830152505050565b600061083361082e846107e0565b6107c5565b90508281526020810184848401111561084f5761084e61074f565b5b61085a848285610811565b509392505050565b600082601f8301126108775761087661074a565b5b8135610887848260208601610820565b91505092915050565b600060ff82169050919050565b6108a681610890565b81146108b157600080fd5b50565b6000813590506108c38161089d565b92915050565b600080604083850312156108e0576108df6106b5565b5b600083013567ffffffffffffffff8111156108fe576108fd6106ba565b5b61090a85828601610862565b925050602061091b858286016108b4565b9150509250929050565b600081519050919050565b600082825260208201905092915050565b6000819050602082019050919050565b61095a816106df565b82525050565b600061096c8383610951565b60208301905092915050565b6000602082019050919050565b600061099082610925565b61099a8185610930565b93506109a583610941565b8060005b838110156109d65781516109bd8882610960565b97506109c883610978565b9250506001810190506109a9565b5085935050505092915050565b600060208201905081810360008301526109fd8184610985565b905092915050565b600081519050919050565b600082825260208201905092915050565b6000819050602082019050919050565b600081519050919050565b600082825260208201905092915050565b60005b83811015610a6b578082015181840152602081019050610a50565b83811115610a7a576000848401525b50505050565b6000610a8b82610a31565b610a958185610a3c565b9350610aa5818560208601610a4d565b610aae81610754565b840191505092915050565b610ac281610890565b82525050565b60006080830160008301518482036000860152610ae58282610a80565b9150506020830151610afa6020860182610ab9565b506040830151610b0d6040860182610951565b506060830151610b206060860182610ab9565b508091505092915050565b6000610b378383610ac8565b905092915050565b6000602082019050919050565b6000610b5782610a05565b610b618185610a10565b935083602082028501610b7385610a21565b8060005b85811015610baf5784840389528151610b908582610b2b565b9450610b9b83610b3f565b925060208a01995050600181019050610b77565b50829750879550505050505092915050565b60006020820190508181036000830152610bdb8184610b4c565b905092915050565b7f4e487b7100000000000000000000000000000000000000000000000000000000600052603260045260246000fd5b7f4e487b7100000000000000000000000000000000000000000000000000000000600052601160045260246000fd5b6000610c4c82610890565b915060ff821415610c6057610c5f610c12565b5b600182019050919050565b6000819050919050565b6000610c8082610c6b565b9150610c8b83610c6b565b925082821015610c9e57610c9d610c12565b5b828203905092915050565b7f4e487b7100000000000000000000000000000000000000000000000000000000600052602260045260246000fd5b60006002820490506001821680610cf057607f821691505b60208210811415610d0457610d03610ca9565b5b5091905056fea264697066735822122007b0cb03100bf931ca4dc42dd50b80eae36a63d37c08f243754208773556312064736f6c634300080b0033",
  "immutableReferences": {},
  "source": "// SPDX-License-Identifier: Enum30\r\npragma solidity >=0.5.0 <0.9.0;\r\n\r\ncontract VotingEnum30{\r\n  //  \r\n  struct Candidate {\r\n    string name;\r\n    uint8 age;\r\n    address account;\r\n    uint8 voteCounts;\r\n  }\r\n  //    \r\n  //  => \r\n  // mapping (key => value) \r\n  mapping (address => bool) voterRight;\r\n\r\n  //   =>  \r\n  mapping (address => uint) candidateToId;\r\n\r\n  //   \r\n  constructor () {\r\n    if(isValidVoter()){               //    \r\n      voterRight[msg.sender] = true;  //    \r\n    }\r\n  }\r\n\r\n  //   (/    )\r\n  // => push    !\r\n  Candidate[] private candidateList;      //  \r\n  // Candidate[5] candidateList;  //  \r\n  uint[] testArr = [0,1,2,3,4];\r\n  //      \r\n  address[] private doneVoterList;\r\n\r\n  //     \r\n  function isValidVoter() view internal returns (bool) {\r\n    //      \r\n    for (uint256 i = 0; i < doneVoterList.length; i++) {\r\n      //    \r\n      if (doneVoterList[i] == msg.sender) {\r\n        return false; //  false \r\n      }\r\n    }\r\n    return true;  //  true\r\n  }\r\n\r\n  // memory                 .\r\n  //   \r\n  function addCandidate(string memory _name, uint8 _age) external {\r\n    // TODO:    \r\n    require(candidateList.length < 5);          //    5  \r\n    candidateList.push(Candidate(_name, _age, msg.sender, 0)); //      \r\n    uint id = candidateList.length - 1;\r\n    candidateToId[msg.sender] = id;\r\n  }\r\n  //   \r\n  //    \r\n  modifier voterRightCheck {\r\n    require(voterRight[msg.sender]);\r\n    _;\r\n  }\r\n\r\n  //    \r\n  function voting(address _candidateAccount) external voterRightCheck { \r\n    uint id = candidateToId[_candidateAccount]; //     id \r\n    candidateList[id].voteCounts++;           //      \r\n    doneVoterList.push(msg.sender);           //     \r\n    voterRight[msg.sender] = false;           //   \r\n  }\r\n\r\n  //   \r\n  function getCandidateList () external view returns (Candidate[] memory){\r\n    return candidateList;\r\n  }\r\n\r\n  //      \r\n  function getDoneVoterList() external view returns (address[] memory){\r\n    return doneVoterList;\r\n  }\r\n}",
  "sourcePath": "C:\\Users\\imysh\\Documents\\githubRepositories\\EnumProjects\\Voting\\enum30\\truffle\\contracts\\votingenum.sol",
  "compiler": {
    "name": "solc",
    "version": "0.8.11+commit.d7f03943.Emscripten.clang"
  },
  "schemaVersion": "3.4.5",
  "updatedAt": "2022-02-24T05:13:03.091Z",
  "devdoc": {
    "kind": "dev",
    "methods": {},
    "version": 1
  },
  "userdoc": {
    "kind": "user",
    "methods": {},
    "version": 1
  }
}