{
  "contractName": "VotingEnum30",
  "abi": [
    {
      "inputs": [],
      "stateMutability": "nonpayable",
      "type": "constructor"
    },
    {
      "inputs": [
        {
          "internalType": "string",
          "name": "_name",
          "type": "string"
        },
        {
          "internalType": "uint8",
          "name": "_age",
          "type": "uint8"
        }
      ],
      "name": "addCandidate",
      "outputs": [],
      "stateMutability": "nonpayable",
      "type": "function"
    },
    {
      "inputs": [
        {
          "internalType": "string",
          "name": "_candidateName",
          "type": "string"
        }
      ],
      "name": "voting",
      "outputs": [],
      "stateMutability": "nonpayable",
      "type": "function"
    },
    {
      "inputs": [],
      "name": "test",
      "outputs": [
        {
          "components": [
            {
              "internalType": "string",
              "name": "name",
              "type": "string"
            },
            {
              "internalType": "uint8",
              "name": "age",
              "type": "uint8"
            }
          ],
          "internalType": "struct VotingEnum30.Candidate[]",
          "name": "",
          "type": "tuple[]"
        }
      ],
      "stateMutability": "view",
      "type": "function",
      "constant": true
    }
  ],
  "bytecode": "0x60806040526040518060a00160405280600060ff168152602001600160ff168152602001600260ff168152602001600360ff168152602001600460ff168152506003906005620000519291906200018a565b503480156200005f57600080fd5b5062000070620000d460201b60201c565b15620000ce5760016000803373ffffffffffffffffffffffffffffffffffffffff1673ffffffffffffffffffffffffffffffffffffffff16815260200190815260200160002060006101000a81548160ff0219169083151502179055505b620002b6565b600080600090505b60048054905081101562000181573373ffffffffffffffffffffffffffffffffffffffff166004828154811062000118576200011762000200565b5b9060005260206000200160009054906101000a900473ffffffffffffffffffffffffffffffffffffffff1673ffffffffffffffffffffffffffffffffffffffff1614156200016b57600091505062000187565b8080620001789062000268565b915050620000dc565b50600190505b90565b828054828255906000526020600020908101928215620001ce579160200282015b82811115620001cd578251829060ff16905591602001919060010190620001ab565b5b509050620001dd9190620001e1565b5090565b5b80821115620001fc576000816000905550600101620001e2565b5090565b7f4e487b7100000000000000000000000000000000000000000000000000000000600052603260045260246000fd5b7f4e487b7100000000000000000000000000000000000000000000000000000000600052601160045260246000fd5b6000819050919050565b600062000275826200025e565b91507fffffffffffffffffffffffffffffffffffffffffffffffffffffffffffffffff821415620002ab57620002aa6200022f565b5b600182019050919050565b61098880620002c66000396000f3fe608060405234801561001057600080fd5b50600436106100415760003560e01c8063e0c2eb0214610046578063e3393a6d14610062578063f8a8fd6d1461007e575b600080fd5b610060600480360381019061005b91906105bf565b61009c565b005b61007c6004803603810190610077919061061b565b610135565b005b61008661027b565b60405161009391906107fa565b60405180910390f35b6005600280549050106100ae57600080fd5b600260405180604001604052808481526020018360ff168152509080600181540180825580915050600190039060005260206000209060020201600090919091909150600082015181600001908051906020019061010d929190610389565b5060208201518160010160006101000a81548160ff021916908360ff16021790555050505050565b6000803373ffffffffffffffffffffffffffffffffffffffff1673ffffffffffffffffffffffffffffffffffffffff16815260200190815260200160002060009054906101000a900460ff1661018a57600080fd5b60018160405161019a9190610858565b908152602001604051809103902060008154809291906101b9906108a8565b91905055506004339080600181540180825580915050600190039060005260206000200160009091909190916101000a81548173ffffffffffffffffffffffffffffffffffffffff021916908373ffffffffffffffffffffffffffffffffffffffff16021790555060008060003373ffffffffffffffffffffffffffffffffffffffff1673ffffffffffffffffffffffffffffffffffffffff16815260200190815260200160002060006101000a81548160ff02191690831515021790555050565b60606002805480602002602001604051908101604052809291908181526020016000905b8282101561038057838290600052602060002090600202016040518060400160405290816000820180546102d290610920565b80601f01602080910402602001604051908101604052809291908181526020018280546102fe90610920565b801561034b5780601f106103205761010080835404028352916020019161034b565b820191906000526020600020905b81548152906001019060200180831161032e57829003601f168201915b505050505081526020016001820160009054906101000a900460ff1660ff1660ff16815250508152602001906001019061029f565b50505050905090565b82805461039590610920565b90600052602060002090601f0160209004810192826103b757600085556103fe565b82601f106103d057805160ff19168380011785556103fe565b828001600101855582156103fe579182015b828111156103fd5782518255916020019190600101906103e2565b5b50905061040b919061040f565b5090565b5b80821115610428576000816000905550600101610410565b5090565b6000604051905090565b600080fd5b600080fd5b600080fd5b600080fd5b6000601f19601f8301169050919050565b7f4e487b7100000000000000000000000000000000000000000000000000000000600052604160045260246000fd5b6104938261044a565b810181811067ffffffffffffffff821117156104b2576104b161045b565b5b80604052505050565b60006104c561042c565b90506104d1828261048a565b919050565b600067ffffffffffffffff8211156104f1576104f061045b565b5b6104fa8261044a565b9050602081019050919050565b82818337600083830152505050565b6000610529610524846104d6565b6104bb565b90508281526020810184848401111561054557610544610445565b5b610550848285610507565b509392505050565b600082601f83011261056d5761056c610440565b5b813561057d848260208601610516565b91505092915050565b600060ff82169050919050565b61059c81610586565b81146105a757600080fd5b50565b6000813590506105b981610593565b92915050565b600080604083850312156105d6576105d5610436565b5b600083013567ffffffffffffffff8111156105f4576105f361043b565b5b61060085828601610558565b9250506020610611858286016105aa565b9150509250929050565b60006020828403121561063157610630610436565b5b600082013567ffffffffffffffff81111561064f5761064e61043b565b5b61065b84828501610558565b91505092915050565b600081519050919050565b600082825260208201905092915050565b6000819050602082019050919050565b600081519050919050565b600082825260208201905092915050565b60005b838110156106ca5780820151818401526020810190506106af565b838111156106d9576000848401525b50505050565b60006106ea82610690565b6106f4818561069b565b93506107048185602086016106ac565b61070d8161044a565b840191505092915050565b61072181610586565b82525050565b6000604083016000830151848203600086015261074482826106df565b91505060208301516107596020860182610718565b508091505092915050565b60006107708383610727565b905092915050565b6000602082019050919050565b600061079082610664565b61079a818561066f565b9350836020820285016107ac85610680565b8060005b858110156107e857848403895281516107c98582610764565b94506107d483610778565b925060208a019950506001810190506107b0565b50829750879550505050505092915050565b600060208201905081810360008301526108148184610785565b905092915050565b600081905092915050565b600061083282610690565b61083c818561081c565b935061084c8185602086016106ac565b80840191505092915050565b60006108648284610827565b915081905092915050565b7f4e487b7100000000000000000000000000000000000000000000000000000000600052601160045260246000fd5b6000819050919050565b60006108b38261089e565b91507fffffffffffffffffffffffffffffffffffffffffffffffffffffffffffffffff8214156108e6576108e561086f565b5b600182019050919050565b7f4e487b7100000000000000000000000000000000000000000000000000000000600052602260045260246000fd5b6000600282049050600182168061093857607f821691505b6020821081141561094c5761094b6108f1565b5b5091905056fea26469706673582212205468c4d810d47b54840d6008b9e4fe7a87933e4ed42445d295491c3cc809a06b64736f6c634300080b0033",
  "immutableReferences": {},
  "source": "// SPDX-License-Identifier: Enum30\r\npragma solidity >=0.5.0 <0.9.0;\r\n\r\ncontract VotingEnum30{\r\n  //  \r\n  struct Candidate {\r\n    string name;\r\n    uint8 age;\r\n  }\r\n  //    \r\n  //  => \r\n  // mapping (key => value) \r\n  mapping (address => bool) voterRight;\r\n\r\n  //   =>  \r\n  mapping (string => uint) candidateCount;\r\n\r\n  //   \r\n  constructor () {\r\n    if(isValidVoter()){               //    \r\n      voterRight[msg.sender] = true;  //    \r\n    }\r\n  }\r\n\r\n  //   (/    )\r\n  // => push    !\r\n  Candidate[] candidateList;      //  \r\n  // Candidate[5] candidateList;  //  \r\n  uint[] testArr = [0,1,2,3,4];\r\n  //      \r\n  address[] doneVoter;\r\n\r\n  //     \r\n  function isValidVoter() view internal returns (bool) {\r\n    //      \r\n    for (uint256 i = 0; i < doneVoter.length; i++) {\r\n      //    \r\n      if (doneVoter[i] == msg.sender) {\r\n        return false; //  false \r\n      }\r\n    }\r\n    return true;  //  true\r\n  }\r\n\r\n  // memory                 .\r\n  //   \r\n  function addCandidate(string memory _name, uint8 _age) external {\r\n    // TODO:    \r\n    require(candidateList.length < 5);          //    5  \r\n    candidateList.push(Candidate(_name, _age)); //      \r\n  }\r\n  //   \r\n  //    \r\n  modifier voterRightCheck {\r\n    require(voterRight[msg.sender]);\r\n    _;\r\n  }\r\n\r\n  //    \r\n  function voting(string memory _candidateName) external voterRightCheck { \r\n    // TODO: _candidateName  candidateList   \r\n    candidateCount[_candidateName]++; //      \r\n    doneVoter.push(msg.sender);       //     \r\n    voterRight[msg.sender] = false;   //   \r\n  }\r\n\r\n  function test() external view returns (Candidate[] memory){\r\n    return candidateList;\r\n  }\r\n}",
  "sourcePath": "C:\\Users\\imysh\\Documents\\githubRepositories\\EnumProjects\\Voting\\enum30\\truffle\\contracts\\votingenum.sol",
  "compiler": {
    "name": "solc",
    "version": "0.8.11+commit.d7f03943.Emscripten.clang"
  },
  "schemaVersion": "3.4.5",
  "updatedAt": "2022-02-23T09:53:26.188Z",
  "networkType": "ethereum",
  "devdoc": {
    "kind": "dev",
    "methods": {},
    "version": 1
  },
  "userdoc": {
    "kind": "user",
    "methods": {},
    "version": 1
  }
}